:020000040800F2
:1000000068040020010100081312000815110008FF
:100010001112000809040008DD15000800000000A6
:10002000000000000000000000000000371200087F
:100030000B04000800000000351200083912000807
:100040001B0100081B0100081B0100081B01000820
:100050001B0100081B0100081B0100081B01000810
:100060001B0100081B0100081B0100081B01000800
:100070001B0100081B0100081B0100081B010008F0
:100080001B0100081B0100081B0100081B010008E0
:100090001B0100081B0100081B0100081B010008D0
:1000A0001B0100081B0100081B0100081B010008C0
:1000B0001B0100081B0100081B0100081B010008B0
:1000C0001B0100081B0100081B0100081B010008A0
:1000D0001B010008D11500081B0100081B010008C6
:1000E0001B0100081B0100081B010008DFF80CD0F1
:1000F00000F078F900480047FD150008680400206A
:100100000648804706480047FEE7FEE7FEE7FEE7B1
:10011000FEE7FEE7FEE7FEE7FEE7FEE78D120008DA
:10012000ED000008202A04DB203A21FA02F0002129
:10013000704721FA02F3D040C2F1200291400843F7
:1001400019467047D2B201E000F8012B491EFBD2DC
:1001500070470022F6E710B513460A4604461946D2
:10016000FFF7F0FF204610BD2DE9FE4F804681EAE3
:100170000300C00F0C46009021F0004123F0004521
:10018000B8EB0200A94105D24046214690461C46E4
:100190000B46024623F00040104347D0270DC7F31B
:1001A0000A00C3F30A510290401A019040286BDA0A
:1001B000C3F3130040F4801B0098924620B1002343
:1001C000D2EB030A63EB0B0B01985946C0F14002D6
:1001D000504600F089F806460D4650465946019AA9
:1001E00000F091F810EB08006141002487EA1152F9
:1001F00084EAE7731A4340D0009A62B3019A012A55
:100200004FEA075215DC001B61EB02014FF0004280
:1002100002EA0752CDE90042001C41F58011324646
:100220002B4600F091F803B0BDE8F08F4046214620
:10023000F9E7001B61EB0201001C41F58013001877
:100240005B412018A2F5001747EB030140EAD57087
:10025000B6196D4111E06D084FEA360645EAC075E2
:100260004FEA0752001B61EB0201001C41F58011AF
:1002700049084FEA30000019514132462B4603B07D
:10028000BDE8F04F00F051B8009801224000002373
:10029000D0EB020263EBE073009821464FEAE07472
:1002A000B8EB000061EB0401E9E783F000435BE792
:1002B00081F0004158E7000030B5041E71F10004E0
:1002C00004DB4FF00044404264EB0101141E73F163
:1002D000000405DB1C464FF00043524263EB04036D
:1002E0008B4208BF824230BD202A04DB203A00FA4C
:1002F00002F1002070479140C2F1200320FA03F37D
:10030000194390407047202A06DBCB17203A41FA68
:1003100002F043EAE07306E041FA02F3D040C2F192
:100320002002914008431946704710B5141E73F11E
:10033000000408DA401C41F1000192185B411A43A5
:1003400001D120F0010010BD2DE9F04D92469B46F1
:1003500011B1B1FA81F202E0B0FA80F22032904697
:10036000FFF7C2FF04460F4640EA0A0041EA0B01CC
:1003700053465A46084313D0114653EA010019D098
:10038000C8F140025046FFF7CDFE05460E465046E6
:1003900059464246FFF7A8FF084305D0012004E074
:1003A00020463946BDE8F08D0020054346EAE07658
:1003B0002C4337430A986305E40AA0EB08000022A7
:1003C000FD0A44EA47540A3002D500200146E9E715
:1003D000010510196941DDE9084500196941BDE8C9
:1003E000F04DA2E7064C074D06E0E06840F001033F
:1003F00094E8070098471034AC42F6D3FFF77AFE32
:100400002018000840180008FEE7704770470000F9
:1004100010B590F821100024022903D00421816333
:1004200001243DE001680A6822F00E020A600168BA
:100430000A6822F001020A601A4A0168914201D159
:10044000012121E0174A1432914201D110211BE011
:10045000144A2832914201D1891515E0114A3C32E3
:10046000914201D189140FE00E4A5032914202D1DB
:100470004FF4803108E00B4A6432914202D14FF4CC
:10048000801101E04FF08071064A083A5160012165
:1004900080F82110002180F82010416B01B18847BD
:1004A000204610BD0800024070B5044600F0F6F882
:1004B0000546601C02D004480078044400F0EEF8C1
:1004C000401BA042FAD370BD180000202DE9F84F60
:1004D000DFF890A100220AF1040B144601274FF027
:1004E0000F090BF1040E00BF0B6807FA04F52B404F
:1004F000AB4274D1DFF870C14E68A6EB0C086645BC
:100500002BD00DDC032E34D005DC36B3012E19D0F0
:10051000022E2FD11BE0112E16D0122E2AD119E057
:10052000B8F5881F19D006DCB8F5803F15D0B8F5AE
:10053000801F1FD111E0B8F5001F0ED0B8F5041FC1
:1005400018D10AE0CA6815E0CA68121D12E0CA682C
:1005500008320FE0CA680C320CE08A682AB1012A1E
:100560004FF0080203D0456104E0042202E0056177
:1005700000E00022FF2B01D8064601E000F104064E
:100580004FEA840501D9A5F12005D6F800C009FA83
:1005900005F82CEA080C02FA05F54CEA050CC6F839
:1005A00000C04D68ED0057D5304DAE6946F00106EC
:1005B000AE61AD6924F0030605F0010500952C4DF0
:1005C00006EB050CDCF80850A6074FEA167809FA86
:1005D00008F6B543274EB04202D1002610E03BE0BA
:1005E000254EB04201D101260AE0244EB04201D18D
:1005F000022605E0224EB04201D1032600E0042687
:1006000006FA08F62E43CCF808604D68DAF8006068
:10061000ED03554601D51E4300E09E432E604D6814
:10062000DBF80060AD035D4601D51E4300E09E434C
:100630002E604D68DEF80060ED02754601D51E4360
:1006400000E09E432E604D68AD020E4D2E6801D530
:100650001E4300E09E432E60641C102CFFF444AF48
:10066000BDE8F88F000401400000111000100240A6
:100670000000014000080140000C01400010014052
:10068000001401400C0401408068084000D00120A3
:1006900070470AB1016170470904FBE701488068AF
:1006A0007047000018000020024881680278114459
:1006B0008160704718000020074810B5016841F0BC
:1006C00010010160032000F073F8002000F006F82C
:1006D00000F024F8002010BD0020024070B50D4D40
:1006E00004464FF47A712878B1FBF0F00A490968A2
:1006F000B1FBF0F000F0FCFA48B9102C07D2002250
:100700002146501E00F034F800206C6070BD0120BE
:1007100070BD000018000020240000200C4808B51F
:10072000816941F001018161816901F0010100915C
:10073000C16941F08051C161C06900F080500090F2
:100740000448416821F0E06141F08061416008BDEA
:10075000001002400000014000F01F020121914002
:100760004009800000F1E020C0F80011704700004F
:10077000F0B40E4B1B680C46C3F30223C3F107050C
:10078000042D00D90425191D072901D2002300E0FA
:10079000DB1E012606FA05F1491E214099409E40C4
:1007A000761E16403143F0BC00F034BD0CED00E085
:1007B000064900F0070208684FF6FF03184040EAB8
:1007C0000220034A10430860704700000CED00E06F
:1007D0000000FA052DE9F047DFF8548105460E4682
:1007E000D8F8000000F00700B0420CD2D8F8001092
:1007F00021F007013143C8F80010D8F8000000F0DC
:100800000700B0426FD128684A4C810712D54007D3
:1008100003D5606840F4E06060602878000703D585
:10082000606840F4605060606068A96820F0F00083
:10083000084360602878C00744D06868012816D053
:100840002168022816D0890700294CDA616821F056
:10085000030101436160FFF721FF6968074641F228
:10086000883001290ED00229814618D026E021685F
:100870008903E9E78901E7E7FFF710FFC11B494555
:1008800001D918E081466068C0F381000128F3D1E6
:1008900018E000BFFFF702FFC11B49450BD8606895
:1008A000C0F381000228F5D10CE000BFFFF7F6FE8F
:1008B000C11B494502D90320BDE8F087606810F0EC
:1008C0000C0FF3D1D8F80010404601F00701B142F7
:1008D0000BD9016821F0070131430160006800F085
:1008E0000700B04201D00120E6E72878400705D58F
:1008F0006068E96820F4E0600843606028780007D9
:1009000006D56068296920F4605040EAC100606043
:1009100000F036F86168084AC1F30311515CC84021
:10092000064908600020FFF7D9FE0020C4E7000058
:100930000020024000100240081800082400002097
:100940000448054900684968044AC1F30221515C22
:10095000C84070472400002000100240181800080A
:100960000448054900684968044AC1F3C221515C42
:10097000C8407047240000200010024018180008EA
:1009800012A185B00FC98DE80F0014A0144A0068A9
:1009900004905168134801F00C03042B10D0082B6D
:1009A0000ED1C1F38343C9031DF803000AD5516872
:1009B00004AAC1F34041515C0A4A5043B0FBF1F034
:1009C00005B0704708494843FAE7000002030405F0
:1009D000060708090A0B0C0D0E0F1010010200008B
:1009E0000010024000127A0000093D002DE9F84F86
:1009F00004460078B94DC00748D06868C0F381004C
:100A0000012807D06868C0F38100022809D168680E
:100A1000C00306D52868800338D5606800286FD0E9
:100A200034E06068B0F5803F0BD010B1B0F5A02F76
:100A300011D0286820F480302860286820F48020B5
:100A400002E0286840F480302860606888B1FFF7D1
:100A500025FE064609E0286840F480202860F0E77B
:100A6000FFF71CFE801B642875D828688003F7D523
:100A70000CE0FFF713FE064605E000BFFFF70EFE91
:100A8000801B6428F0D828688003F7D42078944E1F
:100A900080074FF001094FF000083BD5686810F05F
:100AA0000C0F07D06868C0F38100022809D168687C
:100AB000C00306D42868800714D5206901281FD1F7
:100AC00010E02069B0B1C6F80090FFF7E7FD0746D7
:100AD00005E000BFFFF7E2FDC01B0228C4D828686C
:100AE0008007F7D52868616920F0F80040EAC10066
:100AF00028600FE0C6F80080FFF7D0FD074606E04B
:100B0000E9E000BFFFF7CAFDC01B022823D8286810
:100B10008007F7D4207800072CD57248A169D9B195
:100B2000C0F80090FFF7BAFD074604E0FFF7B6FDF6
:100B3000C01B02280FD8686A8007F7D56A484FF4AF
:100B4000FA510068B0FBF1F0009000BF0098411E20
:100B50000091FAD20EE080E0C0F80080FFF79EFD21
:100B6000074604E0FFF79AFDC01B022875D8686AA3
:100B70008007F7D42078400760D5E8690027C000D7
:100B800008D4E86940F08050E861E869012700F086
:100B90008050009055480168C90513D40168834608
:100BA00041F480710160FFF779FD824606E000BFE5
:100BB000FFF774FDA0EB0A0064284ED8DBF80000B4
:100BC000C005F5D5E06801280AD008B1052813D082
:100BD000286A20F001002862286A20F0040002E060
:100BE000286A40F001002862E06841F2883B98B131
:100BF000FFF754FD82460BE0286A40F004002862AB
:100C0000EEE700BFFFF74AFDA0EB0A0159455AD8AD
:100C1000286A8007F6D50CE0FFF740FD824605E024
:100C2000FFF73CFDA0EB0A0159454CD8286A800724
:100C3000F6D41FB1E86920F08050E861E06988B31C
:100C40006968C1F38101022945D00228C6F8608095
:100C500004D0FFF723FD044638E034E0FFF71EFD23
:100C6000074604E0FFF71AFDC01B02282BD82868AE
:100C70008001F7D4206AB0F5803F05D16868A1688B
:100C800020F4003008436860D4E90801084369682B
:100C900021F4741108436860C6F86090FFF7FEFC09
:100CA000044606E015E000BFFFF7F8FC001B022831
:100CB00009D828688001F7D50BE000BFFFF7EEFCEC
:100CC000001B022802D90320BDE8F88F28688001A4
:100CD000F4D40020F8E70120F6E7000000100240FD
:100CE0000000424280044242240000200070004084
:100CF00010B5401EB0F1807F01D3012010BD4FF030
:100D0000E02460610F21601700F084FA0020A061E8
:100D100007202061002010BD7047000070B50268F8
:100D200004461068D168536910F00F0F50D003F0DB
:100D3000010501F4907635435DD0C20705D0CA05A0
:100D400003D5E26B42F00102E263420705D5DA0700
:100D500003D0E26B42F00202E263820705D5DA07B4
:100D600003D0E26B42F00402E263020705D5DA0722
:100D700003D0E26B42F00802E263E26B002A33D058
:100D8000800604D5880602D5204600F0B9FA20680E
:100D90004069E16BC0F38010090700D428B32046F6
:100DA00000F0A0FA2068416949061AD5416921F08E
:100DB00040014161606BA0B11B494163606BFFF76B
:100DC00027FB002810D0606B416BBDE870400847DE
:100DD000830610D58B060ED52046BDE8704000F086
:100DE0008FBA2046FFF798FF70BD2046FFF794FFAB
:100DF0000020E06370BD030606D50B0604D520462F
:100E0000BDE8704000F080BB4006F3D54806F1D540
:100E1000D168204621F04001D160202184F83910AA
:100E200000F077F970BD0000D512000870B504001D
:100E300004D094F83900002510B106E0012070BDFF
:100E400084F83850204600F023F8242084F8390034
:100E50002068C16821F40051C160204600F09CFA6E
:100E60002068016921F4904101612068416921F005
:100E70002A0141612068C16841F40051C160E56305
:100E8000202084F8390084F83A00002070BD00006A
:100E900030B585B000240094019402940394006856
:100EA000184988422CD11848816941F480418161F8
:100EB000816901F480410491816941F004018161FB
:100EC0008069124D00F0040004904FF4007000900F
:100ED000022001900320039069462846FFF7F6FAA6
:100EE0002815CDE90004694628460294FFF7EEFA7A
:100EF000002211462520FFF73BFC2520FFF72CFCA4
:100F000005B030BD0038014000100240000801402B
:100F100090F83A30202B22D1F9B1F2B190F8383064
:100F2000012B1CD081628285C2850021C1632222EF
:100F300080F83A2080F838100168CA6842F480725C
:100F4000CA6001684A6942F001024A610068C168EA
:100F500041F02001C160002070470120704702204D
:100F6000704700002DE9F04737494FF40067374CD0
:100F700008783E01364D4FF400584FF480594FF435
:100F8000807A4F2812D0502826D0512826D05228B7
:100F90002DD0552846D056284BD058200870BDE893
:100FA000F047012228492B48FFF7B2BF01223946FA
:100FB0002046FFF76EFB002241462046FFF769FB03
:100FC000002231462046FFF764FB002231462846C6
:100FD000FFF75FFB002226E001221DE000224146D0
:100FE0002046FFF756FB01223146204629E0012228
:100FF00031462846FFF74DFB002249462846FFF7B9
:1010000048FB002251462846FFF743FB00223946A1
:101010002046FFF73EFB002241462046FFF739FB02
:101020000022E1E7012249462846FFF732FB002271
:1010300005E0002249462846FFF72BFB01225146D6
:101040002846FFF726FBAAE707000020000C014016
:1010500000080140280000202DE9F843044690F8DC
:1010600039001F4616460D46202850D1A5B19EB125
:1010700094F8380001284AD0012084F838004FF055
:101080000008C4F83C80212084F83900FFF706FBF3
:10109000A6848146E68426E00120BDE8F883E08C42
:1010A000401EE084A0684B46B0F5805F4FF0000220
:1010B0004FF080012046009703D000F056FAE8B9BF
:1010C0000DE000F052FAC8B928882168C0F3080082
:1010D0004860206908B16D1C05E0AD1C03E0216883
:1010E00015F8010B4860E08C0028D8D14B4600224F
:1010F00040212046009700F038FA08B10320CCE7E1
:10110000202084F8390084F838800020C5E70220C8
:10111000C3E77047FEE700002DE9F04385B00024E7
:101120002A480094019402940394816941F02001BB
:101130008161816901F020010491816941F0080118
:101140008161816901F008010491816941F0040124
:1011500081618069DFF8788000F004004FF4284551
:101160000490002229464046FFF793FADFF8649086
:101170004FF41147002239464846FFF78AFA6810B3
:10118000CDE90004694640460294FFF79FF90095B7
:10119000022601250396CDE9015469464046FFF732
:1011A00095F900970396CDE9015469464846FFF743
:1011B0008DF94FF4D040CDE90004694648460294C9
:1011C000FFF784F905B0BDE8F0830000001002408D
:1011D000000C0140000801400C4810B50A490160AC
:1011E0004FF4E1314160002181600C22C160C0E90F
:1011F00004128161C161FFF719FE002803D0BDE828
:101200001040FFF703B910BD00380140280000204E
:10121000FEE770470907090E002806DA00F00F0004
:1012200000F1E02080F8141D704700F1E02080F804
:101230000014704770477047FFF736BA30B58FB06B
:1012400028216846FEF785FF14210AA8FEF781FFD2
:1012500001210804CDE90010002402940225049124
:10126000CDE907504FF4E01009906846FFF7BEFB48
:101270000F20CDE90A056802CDE90C4002210AA839
:101280000E94FFF7A7FA0FB030BD00000D480168BB
:1012900041F00101016041680B4A11404160016861
:1012A0000A4A11400160016821F48021016041680F
:1012B00021F4FE0141604FF41F0181600449C00325
:1012C00008607047001002400000FFF8FFFFF6FEC4
:1012D00008ED00E010B5406A0021C185C184FFF728
:1012E0001BFD10BD0168CA6822F49072CA600168D3
:1012F0004A6922F001024A61202180F83A107047C1
:1013000010B590F83A10222901D0022010BD816852
:10131000B1F5805F11D00169002901681FD04968CB
:1013200001F07F03816A4A1C82620B70C18D491EE5
:101330000904090CC18518D02BE00269816A002AD2
:101340000268526805D0D2B20A80816A491C816263
:10135000ECE7C2F308020A80816A891CF7E74A6851
:10136000816A4B1C83620A70E0E70168CA6822F058
:101370002002CA600168CA6822F48072CA600168EB
:101380004A6922F001024A61202180F83A10FFF7F1
:10139000E9FD002010BD00002DE9F0410446006881
:1013A0000169E26821F44051114301612169A0689B
:1013B0000843616908432168CA6841F20C639A4393
:1013C0000243CA6020684169A26921F44071114357
:1013D00041614C4920686425322688423CD1FFF7A0
:1013E000BFFA00EBC00101EB001061688900B0FB9F
:1013F000F1F7FFF7B5FA00EBC00101EB00106168EF
:10140000B0468900B0FBF1F0B0FBF5F06FF01801C9
:10141000484307EB800106EB0110B0FBF5F000F04C
:10142000F006FFF79DFA00EBC00101EB00106168C8
:101430008900B0FBF1F0B0FBF5F006EB0016FFF70A
:101440008FFA00EBC00101EB001061688900B0FB6E
:10145000F1F7FFF785FA3BE0FFF772FA00EBC00106
:1014600001EB001061688900B0FBF1F7FFF768FA43
:1014700000EBC00101EB00106168B0468900B0FBD1
:10148000F1F0B0FBF5F06FF01801484307EB800175
:1014900006EB0110B0FBF5F000F0F006FFF750FA94
:1014A00000EBC00101EB001061688900B0FBF1F0B6
:1014B000B0FBF5F006EB0016FFF742FA00EBC001B7
:1014C00001EB001061688900B0FBF1F7FFF738FA13
:1014D00000EBC00101EB001061688900B0FBF1F086
:1014E000B0FBF5F06FF01801484307EB800108EB03
:1014F0000110B0FBF5F0216800F00F003044886067
:10150000BDE8F0810038014090F83910212901D060
:10151000022070478168B1F5805F016A0BD04A1CD8
:101520000262026809785160C18C491E0904090CE5
:10153000C1840ED017E009880268C1F30801516028
:1015400001690029016A02D0491C0162ECE7891C8B
:10155000FBE70168CA6822F08002CA600068C168BF
:1015600041F04001C160002070472DE9F0419846EC
:1015700017460E460446069D1DE0681C1BD02DB183
:10158000FFF78CF8A0EB0800A84214D92068C168C6
:1015900021F4D071C1602068416921F001014161ED
:1015A000202084F8390084F83A00002084F83800BC
:1015B0000320BDE8F0812068006836EA000004D00E
:1015C0000020B842D9D00020F3E70120F9E700005D
:1015D0000148FFF7A3BB000028000020FEE702E05F
:1015E00008C8121F08C1002AFAD1704770470020AE
:1015F00001E001C1121F002AFBD17047FFF75CF820
:10160000FFF71CFEFFF788FDFFF7E6FD4FF6FF73BF
:10161000012277497748FFF71FFD75490122C91D4F
:101620007448FFF775FC724DDFF8CCA1DFF8CCB140
:101630004FF480484FF0010900262C46E06868B35B
:10164000D4E9040100221346FEF736FE27D100221A
:101650004FF4006157465046E660FFF71AF8002243
:101660004FF400513846FFF714F800224FF40041C0
:101670003846FFF70EF800224FF400415F46584607
:10168000FFF707F800224FF480513846FFF701F8C2
:1016900000224FF480713846FEF7FBFF07E0D4E9E3
:1016A00004010022564BFEF700FEC4E904014FF48A
:1016B000806157465046FEF7E7FF60704FF4805157
:1016C0003846FEF7E1FFA07041463846FEF7DCFFE2
:1016D000E07041465F465846FEF7D6FF20714FF452
:1016E00000513846FEF7D0FF60714FF40061384674
:1016F000FEF7CAFFA071607888B1412028704FF6CC
:10170000FF7301223A493B48FFF7A6FCA068FEF7A9
:10171000CBFE3C480021C4F80C90C4E90410A0782A
:1017200080B1422028704FF6FF73012230493148C2
:10173000FFF792FCA068FEF7B7FE32490020E66092
:10174000C4E90401E07888B1432028704FF6FF73A4
:10175000012227492748FFF77FFCA068FEF7A4FE77
:1017600028480021C4F80C90C4E90410207988B1FD
:10177000442028704FF6FF7301221D491D48FFF7D2
:101780006BFCA068FEF790FE1E480021C4F80C9088
:10179000C4E90410607980B1452028704FF6FF73CA
:1017A000012213491348FFF757FCA068FEF77CFE9F
:1017B00014480021E660C4E90410A07988B14620ED
:1017C00028704FF6FF73012209490A48FFF744FCCD
:1017D000A068FEF769FE0B490020C4F80C90C4E92C
:1017E0000401A67166712671E670A670667025E721
:1017F0000000002028000020000C014000080140EB
:101800000000F03F60E356410000000000000000CF
:101810000102030406070809000000000102030496
:10182000401800080000002028000000DE15000815
:10183000681800082800002040040000EE15000889
:10184000470000000000000020030000000000002E
:101850000000000060E3564101000000100000009D
:081860000000000000A24A0490
:04000005080000ED02
:00000001FF
